{
  "contractName": "PrivateNetwork",
  "abi": [
    {
      "inputs": [
        {
          "internalType": "address",
          "name": "_owner",
          "type": "address"
        }
      ],
      "stateMutability": "nonpayable",
      "type": "constructor"
    },
    {
      "anonymous": false,
      "inputs": [
        {
          "indexed": false,
          "internalType": "address",
          "name": "from",
          "type": "address"
        },
        {
          "indexed": false,
          "internalType": "uint256",
          "name": "amount",
          "type": "uint256"
        }
      ],
      "name": "DepositFrom",
      "type": "event"
    },
    {
      "inputs": [],
      "name": "owner",
      "outputs": [
        {
          "internalType": "address",
          "name": "",
          "type": "address"
        }
      ],
      "stateMutability": "view",
      "type": "function",
      "constant": true
    },
    {
      "inputs": [],
      "name": "deposit",
      "outputs": [],
      "stateMutability": "payable",
      "type": "function",
      "payable": true
    },
    {
      "inputs": [
        {
          "internalType": "address payable",
          "name": "account",
          "type": "address"
        }
      ],
      "name": "bootstrap",
      "outputs": [],
      "stateMutability": "nonpayable",
      "type": "function"
    }
  ],
  "bytecode": "0x608060405234801561001057600080fd5b506040516103d83803806103d88339818101604052602081101561003357600080fd5b8101908080519060200190929190505050806000806101000a81548173ffffffffffffffffffffffffffffffffffffffff021916908373ffffffffffffffffffffffffffffffffffffffff16021790555050610344806100946000396000f3fe6080604052600436106100345760003560e01c80630784dd59146100395780638da5cb5b1461008a578063d0e30db0146100e1575b600080fd5b34801561004557600080fd5b506100886004803603602081101561005c57600080fd5b81019080803573ffffffffffffffffffffffffffffffffffffffff1690602001909291905050506100eb565b005b34801561009657600080fd5b5061009f610257565b604051808273ffffffffffffffffffffffffffffffffffffffff1673ffffffffffffffffffffffffffffffffffffffff16815260200191505060405180910390f35b6100e961027c565b005b6000809054906101000a900473ffffffffffffffffffffffffffffffffffffffff1673ffffffffffffffffffffffffffffffffffffffff163373ffffffffffffffffffffffffffffffffffffffff16146101ad576040517f08c379a00000000000000000000000000000000000000000000000000000000081526004018080602001828103825260208152602001807f4f6e6c79206f776e65722063616e20626f6f747374726170206163636f756e7481525060200191505060405180910390fd5b633b9aca004711610209576040517f08c379a00000000000000000000000000000000000000000000000000000000081526004018080602001828103825260258152602001806102ea6025913960400191505060405180910390fd5b8073ffffffffffffffffffffffffffffffffffffffff166108fc633b9aca009081150290604051600060405180830381858888f19350505050158015610253573d6000803e3d6000fd5b5050565b6000809054906101000a900473ffffffffffffffffffffffffffffffffffffffff1681565b7f6643d795ec4836e9ebd83ebe59402e7510c7fef7c2d84e7eee10ec77898e1d4a3334604051808373ffffffffffffffffffffffffffffffffffffffff1673ffffffffffffffffffffffffffffffffffffffff1681526020018281526020019250505060405180910390a156fe43616e6e6f7420626f6f7473747261702e20576520617265206f7574206f66206d6f6e6579a26469706673582212202f63a061475bb9a3c8c48a55aa93245f8a178ee8a99cda0500994fe761ba5f0764736f6c63430006000033",
  "source": "pragma solidity ^0.6.0;\n\ncontract PrivateNetwork {\n\taddress public owner;\n\tuint256 constant BOOTSTRAP_VALUE = 1000000000;\n\n\tevent DepositFrom(address from, uint256 amount);\n\n\tconstructor(address _owner) public {\n\t\towner = _owner;\n\t}\n\n\tfunction deposit() payable public {\n\t\temit DepositFrom(msg.sender, msg.value);\n\t}\n\n\n\tfunction bootstrap(address payable account) public {\n\t\trequire(msg.sender == owner, \"Only owner can bootstrap account\");\n\t\trequire(address(this).balance > BOOTSTRAP_VALUE, \"Cannot bootstrap. We are out of money\");\n\n\t\taccount.transfer(BOOTSTRAP_VALUE);\n\t}\n}",
  "sourcePath": "/Users/faustovanin/Projects/Blockchain/Blockchain Academy/2020/Ethereum/Módulo 10 - Rede Privada/dev/ba-private-network/contracts/PrivateNetwork.sol",
  "compiler": {
    "name": "solc",
    "version": "0.6.0+commit.26b70077.Emscripten.clang"
  },
  "schemaVersion": "3.2.0",
  "updatedAt": "2020-08-30T23:27:31.979Z",
  "networkType": "ethereum",
  "devdoc": {
    "methods": {}
  },
  "userdoc": {
    "methods": {}
  }
}