{
  "contractName": "Store",
  "abi": [
    {
      "inputs": [
        {
          "internalType": "uint64",
          "name": "_stock",
          "type": "uint64"
        },
        {
          "internalType": "uint256",
          "name": "_price",
          "type": "uint256"
        }
      ],
      "payable": false,
      "stateMutability": "nonpayable",
      "type": "constructor"
    },
    {
      "anonymous": false,
      "inputs": [
        {
          "indexed": true,
          "internalType": "address",
          "name": "buyer",
          "type": "address"
        },
        {
          "indexed": false,
          "internalType": "uint256",
          "name": "change",
          "type": "uint256"
        }
      ],
      "name": "ChangeReceipt",
      "type": "event"
    },
    {
      "anonymous": false,
      "inputs": [
        {
          "indexed": true,
          "internalType": "address",
          "name": "buyer",
          "type": "address"
        },
        {
          "indexed": false,
          "internalType": "uint256",
          "name": "points",
          "type": "uint256"
        }
      ],
      "name": "NewSale",
      "type": "event"
    },
    {
      "constant": true,
      "inputs": [],
      "name": "owner",
      "outputs": [
        {
          "internalType": "address payable",
          "name": "",
          "type": "address"
        }
      ],
      "payable": false,
      "stateMutability": "view",
      "type": "function"
    },
    {
      "constant": true,
      "inputs": [],
      "name": "price",
      "outputs": [
        {
          "internalType": "uint256",
          "name": "",
          "type": "uint256"
        }
      ],
      "payable": false,
      "stateMutability": "view",
      "type": "function"
    },
    {
      "constant": true,
      "inputs": [],
      "name": "stock",
      "outputs": [
        {
          "internalType": "uint64",
          "name": "",
          "type": "uint64"
        }
      ],
      "payable": false,
      "stateMutability": "view",
      "type": "function"
    },
    {
      "constant": false,
      "inputs": [],
      "name": "buy",
      "outputs": [],
      "payable": true,
      "stateMutability": "payable",
      "type": "function"
    },
    {
      "constant": true,
      "inputs": [],
      "name": "getPoints",
      "outputs": [
        {
          "internalType": "uint256",
          "name": "",
          "type": "uint256"
        }
      ],
      "payable": false,
      "stateMutability": "view",
      "type": "function"
    },
    {
      "constant": true,
      "inputs": [
        {
          "internalType": "address",
          "name": "buyer",
          "type": "address"
        }
      ],
      "name": "getBalance",
      "outputs": [
        {
          "internalType": "uint256",
          "name": "",
          "type": "uint256"
        }
      ],
      "payable": false,
      "stateMutability": "view",
      "type": "function"
    }
  ],
  "bytecode": "0x608060405234801561001057600080fd5b506040516107e03803806107e08339818101604052604081101561003357600080fd5b810190808051906020019092919080519060200190929190505050336000806101000a81548173ffffffffffffffffffffffffffffffffffffffff021916908373ffffffffffffffffffffffffffffffffffffffff16021790555081600260006101000a81548167ffffffffffffffff021916908367ffffffffffffffff160217905550806001819055505050610711806100cf6000396000f3fe6080604052600436106100555760003560e01c80638da5cb5b1461005a578063a035b1fe146100b1578063a6f2ae3a146100dc578063bdf3c4ae146100e6578063f4b7095b14610125578063f8b2cb4f14610150575b600080fd5b34801561006657600080fd5b5061006f6101b5565b604051808273ffffffffffffffffffffffffffffffffffffffff1673ffffffffffffffffffffffffffffffffffffffff16815260200191505060405180910390f35b3480156100bd57600080fd5b506100c66101da565b6040518082815260200191505060405180910390f35b6100e46101e0565b005b3480156100f257600080fd5b506100fb6105bb565b604051808267ffffffffffffffff1667ffffffffffffffff16815260200191505060405180910390f35b34801561013157600080fd5b5061013a6105d5565b6040518082815260200191505060405180910390f35b34801561015c57600080fd5b5061019f6004803603602081101561017357600080fd5b81019080803573ffffffffffffffffffffffffffffffffffffffff169060200190929190505050610693565b6040518082815260200191505060405180910390f35b6000809054906101000a900473ffffffffffffffffffffffffffffffffffffffff1681565b60015481565b6000600260009054906101000a900467ffffffffffffffff1667ffffffffffffffff1611610276576040517f08c379a00000000000000000000000000000000000000000000000000000000081526004018080602001828103825260208152602001807f546865726520617265206e6f2070726f647563747320617661696c61626c652e81525060200191505060405180910390fd5b6001543410156102ee576040517f08c379a000000000000000000000000000000000000000000000000000000000815260040180806020018281038252601b8152602001807f56616c756520646f65736e2774206166666f72642070726963652e000000000081525060200191505060405180910390fd5b600060015434816102fb57fe5b069050600081111561039d573373ffffffffffffffffffffffffffffffffffffffff166108fc829081150290604051600060405180830381858888f1935050505015801561034d573d6000803e3d6000fd5b503373ffffffffffffffffffffffffffffffffffffffff167f6eb7e4e28139a13c731c913e624226cc586380b2ff676f0d221383f53ce84892826040518082815260200191505060405180910390a25b6000809054906101000a900473ffffffffffffffffffffffffffffffffffffffff1673ffffffffffffffffffffffffffffffffffffffff166108fc8234039081150290604051600060405180830381858888f19350505050158015610406573d6000803e3d6000fd5b506000600154348161041457fe5b0490506000600360003373ffffffffffffffffffffffffffffffffffffffff1673ffffffffffffffffffffffffffffffffffffffff1681526020019081526020016000205414156104c65760043390806001815401808255809150509060018203906000526020600020016000909192909190916101000a81548173ffffffffffffffffffffffffffffffffffffffff021916908373ffffffffffffffffffffffffffffffffffffffff160217905550505b8067ffffffffffffffff16600360003373ffffffffffffffffffffffffffffffffffffffff1673ffffffffffffffffffffffffffffffffffffffff168152602001908152602001600020600082825401925050819055503373ffffffffffffffffffffffffffffffffffffffff167f1879c2da3209ffa2a894fe5982d4efad2e3748112706ec81de514fb9e9e6677f82604051808267ffffffffffffffff16815260200191505060405180910390a280600260008282829054906101000a900467ffffffffffffffff160392506101000a81548167ffffffffffffffff021916908367ffffffffffffffff1602179055505050565b600260009054906101000a900467ffffffffffffffff1681565b6000806000905060008090505b6004805490508167ffffffffffffffff16101561068b576003600060048367ffffffffffffffff168154811061061457fe5b9060005260206000200160009054906101000a900473ffffffffffffffffffffffffffffffffffffffff1673ffffffffffffffffffffffffffffffffffffffff1673ffffffffffffffffffffffffffffffffffffffff168152602001908152602001600020548201915080806001019150506105e2565b508091505090565b6000600360008373ffffffffffffffffffffffffffffffffffffffff1673ffffffffffffffffffffffffffffffffffffffff16815260200190815260200160002054905091905056fea265627a7a723158203f12166fe6679fedcd11aa3f1f847dcf0e6a6513b01169ad9c96847ca7906f3b64736f6c63430005100032",
  "source": "pragma solidity ^0.5.10;\n\ncontract Store {\n\t// Owner of the contract\n\t// will receive payments\n\taddress payable public owner;\n\n\t// Store control variables\n\tuint256 public price;\n\tuint64 public stock;\n\n\t// Points control\n\tmapping(address => uint256) points;\n\taddress[] buyers;\n\n\tevent NewSale(address indexed buyer, uint256 points);\n\tevent ChangeReceipt(address indexed buyer, uint256 change);\n\n\tconstructor(uint64 _stock, uint256 _price) public {\n\t\towner = msg.sender;\n\t\tstock = _stock;\n\t\tprice = _price;\n\t}\n\n\tfunction buy() payable public {\n\t\trequire(stock > 0, \"There are no products available.\");\n\t\trequire(msg.value >= price, \"Value doesn't afford price.\");\n\n\t\tuint256 change = msg.value%price;\n\t\tif(change > 0) {\n\t\t\tmsg.sender.transfer(change);\n\t\t\temit ChangeReceipt(msg.sender, change);\n\t\t}\n\n\t\towner.transfer(msg.value-change);\n\n\t\tuint64 reward = uint64(msg.value/price); //Type cast\n\n\t\tif(points[msg.sender] == 0) buyers.push(msg.sender);\n\t\tpoints[msg.sender] += reward;\n\n\t\temit NewSale(msg.sender, reward);\n\n\t\tstock -= reward;\n\t}\n\n\tfunction getPoints() public view returns(uint256) {\n\t\tuint256 total = 0;\n\t\tfor(uint64 i=0; i<buyers.length; i++) {\n\t\t\ttotal += points[ buyers[i] ];\n\t\t}\n\t\treturn total;\n\t}\n\n\tfunction getBalance(address buyer) public view returns(uint256) {\n\t\treturn points[buyer];\n\t}\n}",
  "sourcePath": "/Users/faustovanin/Projects/Blockchain/Blockchain Academy/2020/Ethereum/Módulo 6 - Criando Smart Contracts Pt3/dev/contracts/Store.sol",
  "compiler": {
    "name": "solc",
    "version": "0.5.16+commit.9c3226ce.Emscripten.clang"
  },
  "schemaVersion": "3.2.0",
  "updatedAt": "2020-07-25T20:23:15.902Z",
  "devdoc": {
    "methods": {}
  },
  "userdoc": {
    "methods": {}
  }
}